:020000020000FC
:10000000209A219A229A2398259A2D982B9A5798CC
:1000100056985F9A5E9A72E075BD2D98D0E062E1C5
:10002000C0E010E19FD0E4D0D062D07218D096FF2B
:100030000AD0D2FD02C097FF06D0DAD049D075D0E1
:10004000D5FDF3CF77C096FFD46097FFD86007D077
:10005000903CE9F7D2FD1AD0D3FD24D008956F93D8
:1000600079E0A0E0B0E090EC69B166FFA39567FF8E
:10007000B395D7D07A95C1F7A4500AF401C09F7BFD
:10008000B4500AF401C09F776F910895103109F0C0
:1000900003C010E067D008951F3009F40895139548
:1000A00061C00895103009F408951A955BD0089541
:1000B0006F9379E0A0E063B163FFA395B2D07A9526
:1000C000D1F7A45012F4DF7701C0D0686F91089582
:1000D000EFDFD7FF0895E8EBFBE0EADFD7FD3197CC
:1000E00029F0D7FDFACFF75050F40895C0E062E14F
:1000F00010E138D07DD0DCDFD7FDFDCF089562312F
:1001000021F4202F6395C3950895633121F4302F96
:100110006395C3950895643121F4402F6395C39589
:100120000895502F6395C3950895C43009F008953C
:10013000DF7D0895273709F00EC03D3709F00BC069
:10014000473009F008C05F3709F005C02D9AE8E88C
:10015000F3E178D062CF11E108E04AD0E0EEFEE2B0
:1001600071D05BCF103111F400E40895103011F418
:100170000FE30895113011F406E00895123011F4E0
:100180000BE50895133011F40FE40895143011F4C1
:1001900006E60895153011F40DE60895163011F4B1
:1001A0000DE70895173011F407E00895183011F4A1
:1001B0000FE70895193011F40FE608951A3011F47D
:1001C00007E708951B3011F40CE708951C3011F473
:1001D00009E308951D3011F40EE508951E3011F461
:1001E00009E708951F3011F401E7089508E0089524
:1001F0000F931F931FB71F9318E0001F10F029984B
:1002000001C0299A2A9A2A981A95B9F7289A289803
:100210001F911FBF1F910F91089503D03197E9F7E8
:1002200008957F938F9375B580E085BD85B3816018
:1002300085BB88E386BD75BD85B380FFFDCF8F91FB
:100240007F91089503D03197E9F70895CF93CAE0DD
:0A025000E8DFCA95E9F7CF910895A1
:00000001FF
