:020000020000FC
:10000000209A219A229A239824982B9A2C9A53B1B9
:100010000FE360E0D0E076D001D0FDCF19E0A0E0A2
:10002000B0E053B153FFA39554FFB3958DD01A950B
:10003000C1F7A4502AF4DF77B45062F4DF7B08954F
:10004000D7FF01C00895633109F40895D06863951E
:100050000BC00895D6FF01D00895603009F40895CB
:10006000D0646A9501D00895603011F40FE30895CB
:10007000613011F406E00895623011F403E508954B
:10008000633011F40FE40895643011F406E6089526
:10009000653011F40DE60895663011F40DE708950A
:1000A000673011F407E00895683011F40FE7089500
:1000B000693011F40FE608956A3011F40FEB0895DA
:1000C0006B3011F406E808956C3011F403ED0895D7
:1000D0006D3011F40FEC08956E3011F406EE0895B2
:1000E0006F3011F40DEE0895603111F40DEF0895A5
:1000F000613111F407E80895623111F40FEF0895AA
:100100000FEE08950F931F931FB71F9318E0001F62
:1001100010F0299801C0299A2A9A2A981A95B9F7B5
:10012000289A28981F911FBF1F910F91089576E27A
:1001300087EB98EB9A950000E9F78A95D1F77A95C5
:1001400000000000A9F7089575E88BE093E29A9506
:0C015000F1F78A95D9F77A95C1F7089568
:00000001FF
