:100000000C94BB000C9442030C94D8000C94D800C0
:100010000C94D8000C94D8000C94D8000C94D80000
:100020000C94D8000C94D8000C94D8000C94D800F0
:100030000C94D8000C94D8000C94D8000C94D800E0
:100040000C94D8000C94D8000C94D8000C94D800D0
:100050000C94D8000C94D8000C94D8000C94D800C0
:100060000C94D8000C94D8006E616E00696E660026
:1000700000407A10F35A00A0724E18090010A5D45F
:10008000E80000E87648170000E40B54020000CABC
:100090009A3B000000E1F505000080969800000002
:1000A00040420F000000A086010000001027000061
:1000B0000000E803000000006400000000000A00E7
:1000C000000000000100000000002C76D888DC67EA
:1000D0004F0823DFC1DFAE59E1B1B796E5E3E45342
:1000E000C63AE651997696E8E6C28426EB898C9B5F
:1000F00062ED407C6FFCEFBC9C9F40F2BAA56FA5FF
:10010000F490055A2AF75C936B6CF9676DC11BFC80
:10011000E0E40D47FEF520E6B500D0ED902E03009B
:10012000943577050080841E080000204E0A0000E8
:1001300000C80C333333330F986E12831141EF8DA7
:100140002114893BE65516CFFEE6DB18D1844B38E7
:100150001BF77C1D901DA4BBE424203284725E2218
:100160008100C9F124ECA1E53D276364696E6F70DD
:10017000737578585B0011241FBECFEFD8E0DEBF47
:10018000CDBF14E0A0E0B1E0E6E9FDE102C00590DA
:100190000D92A431B107D9F724E0A4E1B4E001C085
:1001A0001D92A933B207E1F70E94BE020C94C90E5A
:1001B0000C9400001092C50087E68093C400E2EC26
:1001C000F0E0808186608083E1ECF0E080818869E6
:1001D00080830895E0ECF0E080818823ECF7809143
:1001E000C60008950F931F93CF93DF93DC018C011A
:1001F00040E050E0E0ECF0E066EC70E0908195FFCC
:10020000FDCFE80189918E01EB0188834F5F5F4F3D
:10021000ED0109900020E9F79E012A1B3B0B2250BB
:1002200031092417350750F7DF91CF911F910F91B6
:100230000895CF93DF933B9A2FEF50EE80E021504B
:1002400050408040E1F700C000003B98339BFECF58
:100250003399FECF339BFECF3399FECF80E090E001
:1002600020E030E040E0A7E0B0E0E1E0F0E0339BE8
:10027000FECFCAEBCA95F1F700C0339B0CC0BD019D
:10028000681B790BEF0102C0CC0FDD1F6A95E2F706
:100290004C2B3399FECF01968830910549F4E90142
:1002A000C45EDB4F48832F5F3F4F80E090E040E02B
:1002B00025303105E1F6DF91CF91089580E48093F8
:1002C0007C0087E880937A000895EAE7F0E0808177
:1002D00080648083808186FDFDCF8091780090913D
:1002E0007900909317048093160408958091160462
:1002F00090911704843691052CF48AE091E00E94D5
:10030000F20008959C0125563109273C310528F457
:100310008AE191E00E94F20008958D5291408F3859
:10032000914028F48FE291E00E94F200089581E468
:1003300091E00E94F20008950F931F93CF93DF93F3
:10034000CDB7DEB76E970FB6F894DEBF0FBECDBF48
:1003500080910201909103010197E1F480911704CB
:100360008F93809116048F938EE591E09F938F93E6
:100370008E010F5F1F4F1F930F930E94150BC80133
:100380000E94F2000E9476010F900F900F900F9044
:100390000F900F906E960FB6F894DEBF0FBECDBFD4
:1003A000DF91CF911F910F91089580911E049FEFCF
:1003B000980F9A3028F48FE691E00E94F200089599
:1003C00094EF980F983028F480E991E00E94F200B1
:1003D00008958551893028F488EB91E00E94F2005D
:1003E000089584ED91E00E94F2000895CF93DF9389
:1003F000D82FC92FECE1F4E040815181852F90E0A6
:10040000248130E0840F911D6281860F911D6381EC
:10041000860F911D2817390729F088EE91E00E9478
:10042000F20042C080910601909107010197C1F44A
:100430001F925F931F924F9387E092E09F938F9359
:10044000CF93DF930E94150B8D2F9C2F0E94F200FB
:100450008DB79EB708960FB6F8949EBF0FBE8DBF9E
:1004600080910401909105010197F1F4ECE1F4E031
:1004700083811F928F9382811F928F9386E192E0F6
:100480009F938F93CF93DF930E94150B8D2F9C2FFB
:100490000E94F2000E94D5018DB79EB708960FB654
:1004A000F8949EBF0FBE8DBFDF91CF9108958091CC
:1004B0000801909109014091230450912404609116
:1004C00021047091220418161906BCF42FEF33EDA5
:1004D000E0E321503040E040E1F700C00000019728
:1004E00020911A0430911B04232B29F010921B0435
:1004F00010921A040895009749F714161506D4F0BF
:100500001CC02FEF33EDE0E321503040E040E1F735
:1005100000C0000020911A0430911B04232B29F005
:1005200010921B0410921A040895019751F741503C
:10053000510919F08CE390E0E4CF16161706D4F0B9
:1005400008952FEF33ED40E3215030404040E1F774
:1005500000C0000020911A0430911B04232B29F0C5
:1005600010921B0410921A040895019751F76150DC
:10057000710919F080E19EE0E4CF0895CF93DF93F5
:10058000CDB7DEB7C456D1090FB6F894DEBF0FBEA3
:10059000CDBF0E94DA000E945E0143981AB884E041
:1005A0008BB982E08093690081E08DBB78948DE205
:1005B00092E00E94F2008BE492E00E94F2008091AF
:1005C00009018F93809108018F93809124048F9368
:1005D000809123048F93809122048F938091210432
:1005E0008F938DE692E09F938F938E010F5F1F4F45
:1005F0001F930F930E94150BC8010E94F2000FB6C3
:10060000F894DEBF0FBECDBF80910401909105012B
:10061000019731F08091060190910701019731F423
:100620000E941901CE0101960E94F60180910201FB
:1006300090910301019721F40E9465010E949C01A1
:100640000E945702E1CF89E090E020E030E04A9933
:1006500002C02F5F3F4FEFE3FCE93197F1F700C095
:1006600000000197A1F7253031053CF081E090E0D2
:10067000909319048093180408951092190410920D
:10068000180408951F920F920FB60F921124CF9263
:10069000DF92EF92FF920F931F932F933F934F930D
:1006A0005F936F937F938F939F93AF93BF93EF93DA
:1006B000FF93CF93DF93CDB7DEB7C656D109DEBF28
:1006C000CDBF0E9423038091180490911904892BB7
:1006D00009F459C2A7961FAE1EAEA7978CE992E007
:1006E0000E94F2000F2EF5E2EF2EF4E0FF2EF02D27
:1006F00000E010E00E94EA00F70181937F01803260
:1007000069F4F801EB5DFB4F108266E073E085E26F
:1007100094E00E94A20A009721F42CC20F5F1F4FA1
:10072000E9CF00E010E07E01F5E6EF0EF11C0F2EA0
:10073000F8E0CF2EF3E0DF2EF02D01151105F1F4D6
:10074000FF92EF92DF92CF929F938F930E94370B8D
:10075000F701808191810F900F900F900F900F9073
:100760000F908033910528F08BE093E00E94F20017
:10077000CCC190932204809321046EC001301105F6
:10078000F1F4FF92EF92DF92CF929F938F930E94AA
:10079000370BF701808191810F900F900F900F9090
:1007A0000F900F908C33910528F08BE093E00E941E
:1007B000F200ABC190932404809323044DC0023017
:1007C000110569F5FF92EF92DF92CF929F938F937D
:1007D0000E94370BF701808191810F900F900F904D
:1007E0000F900F900F908230910564F420912104B6
:1007F00030912204232B31F42091230430912404DE
:10080000232B19F08C33910528F08BE093E00E94A4
:10081000F2007BC190930901809308011DC0033051
:100820001105B1F4FF92EF92DF92CF929F938F93D5
:100830000E94370BF7018081918190930101809391
:1008400000010F900F900F900F900F900F9004C029
:1008500083E293E00E94F2000F5F1F4F66E073E0B7
:1008600080E090E00E94A20A009709F066CF82C162
:100870008AE393E00E94F2008091000190910101CF
:100880008D599F4F873C9105B8F081E090E090939F
:1008900007018093060189E593E00E94F2008091B0
:1008A00000019091010164E670E00E94600990935C
:1008B00001018093000114C01092070110920601FB
:1008C00085E793E00E94F200809100019091010180
:1008D00064E670E00E94600990930101809300013A
:1008E000809100019091010109964397B8F081E051
:1008F00090E0909305018093040182E993E00E94C7
:10090000F20080910001909101016AE070E00E9484
:100910006009909301018093000114C010920501B9
:100920001092040181EB93E00E94F200809100019B
:10093000909101016AE070E00E94600990930101CA
:10094000809300018091000190910101892B59F061
:1009500081E090E0909303018093020181ED93E0A8
:100960000E94F20008C0109203011092020188EE6A
:1009700093E00E94F2001093010100930001809126
:1009800009018F93809108018F93809124048F93A4
:10099000809123048F93809122048F93809121046E
:1009A0008F938DE692E09F938F938E010F5F1F4F81
:1009B0001F930F930E94150BC8010E94F20081E063
:1009C00090E090931B0480931A040FB6F894DEBF56
:1009D0000FBECDBF4A9BFECF10921904109218048F
:1009E000D2C08AE393E00E94F200809100019091CE
:1009F00001018D599F4F873C9105B8F081E090E04F
:100A0000909307018093060189E593E00E94F2002C
:100A1000809100019091010164E670E00E946009FC
:100A2000909301018093000114C01092070110926D
:100A3000060185E793E00E94F20080910001909109
:100A4000010164E670E00E946009909301018093C7
:100A50000001809100019091010109964397B8F03F
:100A600081E090E0909305018093040182E993E096
:100A70000E94F20080910001909101016AE070E013
:100A80000E946009909301018093000114C01092AC
:100A900005011092040181EB93E00E94F200809125
:100AA0000001909101016AE070E00E94600990935A
:100AB0000101809300018091000190910101892B37
:100AC00059F081E090E0909303018093020181ED61
:100AD00093E00E94F20008C01092030110920201FC
:100AE00088EE93E00E94F200109301010093000150
:100AF00081E090E090931B0480931A044A9BFECF00
:100B000010921904109218043EC000910001109137
:100B1000010180E094E00E94F200809109018F932E
:100B2000809108018F93809124048F9380912304F6
:100B30008F93809122048F93809121048F938DE66F
:100B400092E09F938F93FE0131967F01FF93EF9385
:100B50000E94150BC7010E94F2000FB6F894DEBF89
:100B60000FBECDBF8091000190910101892B09F04A
:100B70003CCF37CF00910001109101010115110503
:100B800009F07ACE75CECA59DF4F0FB6F894DEBFA2
:100B90000FBECDBFDF91CF91FF91EF91BF91AF918C
:100BA0009F918F917F916F915F914F913F912F9185
:100BB0001F910F91FF90EF90DF90CF900F900FBE9D
:100BC0000F901F901895A0E1B0E0E9EEF5E00C94CD
:100BD00074097C011B016A01FC0117821682838162
:100BE00081FF44C39E012F5F3F4F3901F70193817D
:100BF000F10193FD859193FF81911F01882309F4F1
:100C000031C3853239F493FD859193FF81911F01A2
:100C1000853239F4B70190E00E94D90A5601650186
:100C2000E5CF10E0512C912CFFE1F915D8F08B3273
:100C300079F038F4803279F08332A1F4F92DF06143
:100C40002EC08D3261F0803369F4292D21602DC0D2
:100C5000392D3260932E892D8460982E2AC0E92D7B
:100C6000E86015C097FC2DC020ED280F2A3088F4CD
:100C700096FE06C03AE0139F200D1124122F19C0D2
:100C80008AE0589E200D1124522EE92DE0629E2EFE
:100C900010C08E3231F496FCE5C2F92DF0649F2E1F
:100CA00008C08C3621F4292D2068922E02C0883687
:100CB00041F4F10193FD859193FF81911F01811111
:100CC000B3CF9BEB980F933020F4992D9061805E09
:100CD00007C09BE9980F933008F066C1992D9F7E5D
:100CE00096FF16E09F73992E853619F49064992E1D
:100CF00008C0863621F4392F3068932E02C01111B6
:100D0000115097FE07C01C3350F444244394410E05
:100D100027E00BC0183038F027E017E005C027E0C7
:100D20009CE3492E02C0212F412C560184E0A80EDD
:100D3000B11CF6016081718182819381042DA30130
:100D40000E94BF096C01F981FC87F0FF02C0F3FF2C
:100D500006C091FC06C092FE06C000E205C00DE28E
:100D600003C00BE201C000E08C858C7019F001110A
:100D70005AC29BC297FE10C04C0CFC85F4FF04C005
:100D80008A81813309F44A94141474F528E02415F7
:100D900078F588E0482E2CC096FC2AC0812F90E080
:100DA0008C159D059CF03CEFC3163FEFD30674F005
:100DB000892D8068982E0AC0E2E0F0E0EC0FFD1F5C
:100DC000E10FF11D8081803319F411501111F4CF1E
:100DD00097FE0EC044244394410E812F90E0C81624
:100DE000D9062CF41C1904C04424439401C010E01B
:100DF00097FE06C01C141D0434F4C601019605C0FC
:100E000085E090E002C081E090E00111019611239D
:100E100031F0212F30E02F5F3F4F820F931F252DA0
:100E200030E08217930714F4581A01C0512C892D11
:100E3000897049F4552039F0B70180E290E00E94B2
:100E4000D90A5A94F7CF002329F0B701802F90E0F8
:100E50000E94D90A93FC09C0552039F0B70180E3FC
:100E600090E00E94D90A5A94F7CF97FE4CC04601F1
:100E7000D7FE02C0812C912CC60188199909F30173
:100E8000E80FF91FFE87ED87960124193109388B89
:100E90002F87012F10E01195019511093FEF83165F
:100EA000930629F4B7018EE290E00E94D90AC81493
:100EB000D9044CF08F8598898815990524F4ED851F
:100EC000FE85818101C080E3F1E08F1A91082D85B4
:100ED0003E852F5F3F4F3E872D87801691062CF071
:100EE000B70190E00E94D90AD9CFC814D90441F4BF
:100EF0009A81963320F4953319F43C8534FF81E3CD
:100F0000B70190E04EC08A81813319F09C859F7EA5
:100F10009C87B70190E00E94D90A111105C094FC8A
:100F200018C085E690E017C0B7018EE290E00E94FD
:100F3000D90A1E5F82E001E0080FF301E80FF11DFE
:100F40008081B70190E00E94D90A802F0113F3CF6E
:100F5000E6CF85E490E0B7010E94D90AD7FC06C02D
:100F6000C114D10441F4EC85E4FF05C0D194C194CF
:100F7000D1088DE201C08BE2B70190E00E94D90A4E
:100F800080E32AE0C216D1042CF08F5FFAE0CF1A7A
:100F9000D108F7CFB70190E00E94D90AB701C60186
:100FA000C0960E94D90A54C1833631F0833779F054
:100FB000833509F056C020C0560132E0A30EB11CA3
:100FC000F6018081898301E010E0630112C05601BF
:100FD000F2E0AF0EB11CF601C080D18096FE03C0D6
:100FE000612F70E002C06FEF7FEFC6010E94A70A79
:100FF0008C01F92DFF7714C0560122E0A20EB11C1E
:10100000F601C080D18096FE03C0612F70E002C05F
:101010006FEF7FEFC6010E94970A8C01F92DF068EF
:101020009F2EF3FD1AC0852D90E008171907A8F42C
:10103000B70180E290E00E94D90A5A94F4CFF601F9
:1010400097FC859197FE81916F01B70190E00E9416
:10105000D90A51105A94015011090115110579F757
:10106000F7C0843611F0893661F5560197FE09C044
:1010700024E0A20EB11CF60160817181828193810E
:101080000AC0F2E0AF0EB11CF60160817181072E3B
:10109000000C880B990BF92DFF769F2E97FF09C046
:1010A00090958095709561957F4F8F4F9F4FF06819
:1010B0009F2E2AE030E0A3010E94500BC82EC618D4
:1010C0003FC0092D853721F40F7E2AE030E01DC096
:1010D000097F8F3691F018F4883559F0C3C08037F6
:1010E00019F0883711F0BEC0006104FF09C0046028
:1010F00007C094FE08C0066006C028E030E005C0C6
:1011000020E130E002C020E132E0560107FF09C0D3
:1011100084E0A80EB11CF601608171818281938107
:1011200008C0F2E0AF0EB11CF6016081718180E071
:1011300090E0A3010E94500BC82EC6180F77902E86
:1011400096FE0BC0092D0E7FC11650F494FE0AC006
:1011500092FC08C0092D0E7E05C0DC2C092D03C0B1
:10116000DC2C01C0D12E04FF0DC0FE01EC0DF11DE1
:101170008081803311F4097E09C002FF06C0D39438
:10118000D39404C0802F867809F0D39403FD11C056
:1011900000FF06C01C2DD51480F4150D1D190DC0BF
:1011A000D51458F4B70180E290E00E94D90AD39494
:1011B000F7CFD51410F45D1801C0512C04FF10C0F6
:1011C000B70180E390E00E94D90A02FF17C001FD39
:1011D00003C088E790E002C088E590E0B7010CC04A
:1011E000802F867859F001FF02C08BE201C080E2B7
:1011F00007FD8DE2B70190E00E94D90AC11638F4CC
:10120000B70180E390E00E94D90A1150F7CFCA9449
:10121000F301EC0DF11D8081B70190E00E94D90A25
:10122000C110F5CF15C0F4E0F51560F584E0581A4B
:1012300093FE1FC0011127C02C8523FF2AC008E69A
:1012400010E0392D3071932EF8018491811124C062
:10125000552009F4E4CCB70180E290E00E94D90A5D
:101260005A94F6CFF7018681978126C08FEF9FEFC2
:1012700023C0B70180E290E00E94D90A5A9451102D
:10128000F8CFD8CF512CB701802F90E00E94D90A17
:10129000D3CF0CE610E0D5CF91108052B70190E08B
:1012A0000E94D90A0F5F1F4FCFCF23E0251510F4FE
:1012B00083E0BDCF512CC0CF6096E2E10C94900941
:1012C00097FB072E16F4009407D077FD09D00E94F3
:1012D000AB0907FC05D03EF4909581959F4F08958A
:1012E000709561957F4F08952F923F924F925F9234
:1012F0006F927F928F929F92AF92BF92CF92DF9226
:10130000EF92FF920F931F93CF93DF93CDB7DEB78A
:10131000CA1BDB0B0FB6F894DEBF0FBECDBF09941E
:101320002A88398848885F846E847D848C849B8475
:10133000AA84B984C884DF80EE80FD800C811B8183
:10134000AA81B981CE0FD11D0FB6F894DEBF0FBEB2
:10135000CDBFED010895AA1BBB1B51E107C0AA1F19
:10136000BB1FA617B70710F0A61BB70B881F991F46
:101370005A95A9F780959095BC01CD010895283024
:1013800008F027E03327DA01990F311D87FD9160BE
:1013900000966105710539F432602E5F3D9330E3AC
:1013A0002A95E1F708959F3F30F080387105610577
:1013B00009F03C5F3C5F3D93913008F08068911DDF
:1013C000DF93CF931F930F93FF92EF92192F987F84
:1013D0009695E92F96959695E90FFF27E653FF4FCF
:1013E00099273327EE24FF24A701E70105900894ED
:1013F000079428F4360FE71EF81E491F511D660F8B
:10140000771F881F991F0694A1F70590079428F469
:10141000E70EF81E491F561FC11D770F881F991F21
:10142000661F0694A1F70590079428F4F80E491F4B
:10143000561FC71FD11D880F991F661F771F06945F
:10144000A1F70590079420F4490F561FC71FD81F16
:10145000990F661F771F881F0694A9F7849110952E
:10146000177041F0D695C79557954795F794E7942F
:101470001A95C1F7E0E7F0E0689415901591359161
:101480006591959105907FE27395E118F10A430B00
:10149000560BC90BD009C0F7E10CF11E431F561FB4
:1014A000C91FD01D7EF4703311F48A95E6CFE894FD
:1014B000015030F0080F0AF40027021708F4202F1B
:1014C0002395022F7A3328F079E37D932A95E9F763
:1014D00010C07D932A9589F6069497956795379560
:1014E00017951794E118F10A430B560BC90BD00955
:1014F00098F023957E9173957A3308F070E37C938E
:101500002013B8F77E9170617D9330F0839571E37D
:101510007D9370E32A95E1F71124EF90FF900F91EE
:101520001F91CF91DF91992787FD90950895FC0138
:101530000590615070400110D8F7809590958E0FFE
:101540009F1F089544E154E00E94B20A0895FC01EF
:101550006150704001900110D8F7809590958E0FE2
:101560009F1F0895FA01A191B081009719F4109777
:10157000E1F0CD01DC01CD010D90002011F4C0019E
:1015800013C0FB012191222319F02015D9F7F3CFC5
:10159000FB012191201519F41E92119606C02223F9
:1015A000C1F70D900020A1F7D001FA01A193B083FB
:1015B00008950F931F93CF93DF93FB01238121FDA8
:1015C00003C08FEF9FEF2CC022FF16C046815781CA
:1015D000248135814217530744F4A081B1819D01D4
:1015E0002F5F3F4F318320838C93268137812F5F7C
:1015F0003F4F3783268314C08B01EC01FB0100842D
:10160000F185E02D0995892BE1F6D80116968D918B
:101610009C911797019617969C938E931697CE01DF
:10162000DF91CF911F910F910895AEE0B0E0EBE113
:10163000FBE00C9482090D891E8986E08C831A8355
:1016400009838FEF9FE79E838D83AE01475E5F4FD7
:101650006F89788DCE0101960E94E305EF81F885B0
:10166000E00FF11F10822E96E4E00C949E09AEE08C
:10167000B0E0EDE3FBE00C94840985E08C838B897A
:101680009C899A838983AE01495E5F4F6D897E890B
:10169000CE0101960E944A0D2E96E2E00C94A0091C
:1016A000FA01AA27283051F1203181F1E8946F9393
:1016B0006E7F6E5F7F4F8F4F9F4FAF4FB1E03ED039
:1016C000B4E03CD0670F781F891F9A1FA11D680FD7
:1016D000791F8A1F911DA11D6A0F711D811D911D0A
:1016E000A11D20D009F468943F912AE0269F11247F
:1016F0003019305D3193DEF6CF010895462F4770E3
:10170000405D4193B3E00FD0C9F7F6CF462F4F703D
:10171000405D4A3318F0495D31FD4052419302D09B
:10172000A9F7EACFB4E0A695979587957795679541
:10173000BA95C9F700976105710508959B01AC0141
:101740000A2E06945795479537952795BA95C9F768
:10175000620F731F841F951FA01D089520FD09C0EF
:10176000FC0123FD05C022FF02C073836283518305
:101770004083089544FD17C046FD17C0AB01BC016E
:10178000DA01FB01AA0FBB1FEE1FFF1F1094D1F758
:101790004A0F5B1F6E1F7F1FCB01BA01660F771FB9
:1017A000881F991F09C033E001C034E0660F771F1E
:1017B000881F991F3150D1F7620F711D811D911D36
:1017C00008950F931F93CF93DF938C01C8010E945C
:1017D0006F0EEC0197FD08C00E945B0E892BB1F7DC
:1017E000B801CE010E94AD0ECE01DF91CF911F91C5
:1017F0000F9108958F929F92AF92BF92EF92FF92B6
:101800000F931F93CF93DF938C01D62F7A01B22EC3
:101810000E946F0E9C0133272B32310531F02D329F
:10182000310561F48B2D8068B82ED15011F480E021
:1018300068C0C8010E946F0E97FDF9CFCB2DCD7FF8
:101840002B2D207309F58033F9F4AA24AA94AD0E48
:1018500009F443C0C8010E946F0E97FD3EC09C0171
:101860002F7D33272835310549F4C264D250A9F1C0
:10187000C8010E946F0E97FF07C02FC0B6FE02C0BE
:10188000C26001C0C261DA2D812C912C540120ED7F
:10189000280F283080F0C4FF04C0B8010E94AD0EAC
:1018A00019C02A3040F0C6FFF8CF2F7D3FEE320F2F
:1018B000363098F727504C2FC501B4010E94BA0B5F
:1018C0004B015C01C260D15059F0C8010E946F0EFB
:1018D00097FFDDCFC1FD04C0AACF812C912C54010C
:1018E000C7FF08C0B094A09490948094811C911C70
:1018F000A11CB11C2C2FB501A401C7010E94AE0B85
:1019000081E0DF91CF911F910F91FF90EF90BF90F9
:10191000AF909F908F900895A0E2B0E0E2E9FCE0E4
:101920000C9477095C01962E7A01F9018E010F5F04
:101930001F4F680180E2D8011D928A95E9F7D50111
:1019400013968C9080E090E0612C712C30E061E087
:1019500070E083FC259183FE21918F01522E21118D
:1019600003C080E090E092C02E3511F4009751F151
:10197000432F50E0481759073CF42D3559F12D32CB
:1019800019F4772009F103C0772009F46AC0452DC6
:10199000469546954695D601A40FB11D452D477035
:1019A0008B0102C0000F111F4A95E2F7A8015C915C
:1019B000452B4C93651459F0561410F45394E7CF0B
:1019C0005A94E5CF31E004C07724739401C0712CA0
:1019D0000196BFCF772019F08E8180628E833111FE
:1019E00003C08824839417C0F6019E012F5D3F4FEA
:1019F0008081809581932E173F07D1F7F2CFE114B4
:101A0000F10429F0D7018C93F70131967F019A9464
:101A1000812C9920F9F0C5010E946F0E97FD18C026
:101A2000FC01FF2723E0F595E7952A95E1F7EC0DFA
:101A3000FD1D208130E0AC014770552702C035956F
:101A400027954A95E2F720FDDACFB5010E94AD0E49
:101A5000811087CFE114F10411F0D7011C92C80165
:101A600015C0422F469546954695D601A40FB11D47
:101A7000422F47708B0102C0000F111F4A95E2F7F9
:101A8000A8015C91452B4C93622EA2CFA096EFE06B
:101A90000C949309A0E0B0E0E0E5FDE00C94770938
:101AA0006C01EB015A01FC0117821682512CF601E0
:101AB000E380FE01E3FC8591E3FE8191182FEF01A5
:101AC000882309F4EEC090E00E945B0E892B21F080
:101AD000C6010E94E10BEBCF153241F4FE01E3FC9D
:101AE0001591E3FE1191EF01153281F4C6010E94B8
:101AF0006F0E97FDD4C0412F50E09C01332724176F
:101B00003507A9F2B6010E94AD0ECBC01A3239F4E6
:101B1000E3FC1591E3FE1191EF0101E001C000E04B
:101B2000F12C20ED210F2A3080F402606F2D70E03F
:101B300080E090E040E20E94BA0BF62EFE01E3FC4A
:101B40001591E3FE1191EF01ECCF01FF03C0F110FD
:101B500003C0A7C0FF24FA94183619F01C3651F0C0
:101B600010C0FE01E3FC1591E3FE1191EF01183660
:101B700041F408600460FE01E3FC1591E3FE11915D
:101B8000EF01112309F48DC0612F70E08AE691E026
:101B90000E94640E892B09F484C000FD07C0F50182
:101BA00080809180C50102965C0102C0812C912C3D
:101BB0001E3651F4F6014681578160E070E0202F17
:101BC000C4010E94AE0B73CF1336A9F401FD02C00D
:101BD000FF24F394C6010E946F0E97FD60C081142C
:101BE000910429F0F4018083C40101964C01FA9418
:101BF000F110F0CF50C01B3559F49E01A4016F2D98
:101C0000C6010E948C0CEC01892B09F044C03EC037
:101C1000C6010E94E10B97FD42C01F3661F128F416
:101C2000143639F1193651F128C0133771F01537D0
:101C300001F123C08114910429F0F4016082C401F0
:101C400001964C01FA94FF2071F0C6010E946F0EBC
:101C50003C0197FD08C00E945B0E892B59F3B60129
:101C6000C3010E94AD0E81149104A9F0F401108209
:101C700012C0006203C0006101C00064202FA401F3
:101C80006F2DC6010E94FA0B811105C0F6018381F8
:101C9000807329F406C000FD0ACF539408CF552065
:101CA00019F0852D90E002C08FEF9FEFCDB7DEB722
:101CB000EFE00C94930991110C94C60E803219F048
:101CC00089508550C8F70895FC010590061621F04B
:101CD0000020D9F7C00108953197CF010895CF931F
:101CE000DF93EC012B8120FF33C026FF0AC02F7B3E
:101CF0002B838E819F8101969F838E838A8190E0C2
:101D000029C022FF0FC0E881F9818081082E000CD4
:101D1000990B009719F420622B831AC03196F9832E
:101D2000E8830EC0EA85FB85099597FF09C02B81E2
:101D3000019611F080E201C080E1822B8B8308C004
:101D40002E813F812F5F3F4F3F832E83992702C013
:101D50008FEF9FEFDF91CF910895FB01238120FF4B
:101D600012C026FD10C08F3F3FEF930761F08283C2
:101D70002F7D2064238326813781215031093783C9
:101D80002683992708958FEF9FEF08959927882735
:061D90000895F894FFCF56
:101D96006F000100010001000500497473206E699F
:101DA6006768742074696D650A00497473207375D9
:101DB6006E72697365206F72206475736B0A0050CA
:101DC60061727469616C6C7920636C6F7564790AF1
:101DD600005468652073756E206974206F757420D1
:101DE600616E64207368696E6E696E670A0062725E
:101DF600696768746E657373203D2025640A004127
:101E0600206C69676874206A61636B657420776FFC
:101E1600756C6420626520616476697365640A0086
:101E26006E6F206E65656420666F722061206A6140
:101E3600636B657420656E6A6F79207468652077B8
:101E46006561746865720A0073686F7274732061E5
:101E56006E6420742D736869727420776561746886
:101E660065720A00484F542C207374617920687992
:101E76006472617465640A00494E5445524645527F
:101E8600454E43452057495448204448542052451E
:101E96004144494E470A0052483A2025642E25649B
:101EA6002525200A200054656D702843656C7369EA
:101EB6007573293A2025642E2564200A0044656638
:101EC60061756C742073616D706C696E67207469DE
:101ED6006D653A20357365632E0A00416C6C20727D
:101EE600656164696E677320656E61626C65642006
:101EF60062792064656661756C742E0A00496E7499
:101F0600657276616C207365743A20256420486F8B
:101F160075722C202564204D696E7574652C2025FC
:101F260064205365636F6E642E0A2000506C6561F1
:101F3600736520656E74657220636F6D6D616E6486
:101F460020666F7220636F6E666967733A20286831
:101F56006F75722C6D696E7574652C7365636F6E23
:101F6600642C336269747320636F6D6D616E6420D7
:101F7600666F722072656164696E67732865786141
:101F86006D706C653A20313131292B5350414345F0
:101F9600424152290A002C00256400496E76616C84
:101FA60069642074696D652073657474696E6773FE
:101FB6002E0A00536F6D657468696E672077656ECB
:101FC600742077726F6E672E0A005761726E696EA3
:101FD600673A204E6F2072656164696E677320658B
:101FE6006E61626C65642E0A0048756D6964697479
:101FF600792072656164696E677320656E61626CD3
:1020060065642E0A0048756D696469747920726585
:102016006164696E67732064697361626C65642EBE
:102026000A0054656D70657261747572652072651B
:102036006164696E677320656E61626C65642E0A01
:102046000054656D706572617475726520726561A4
:1020560064696E67732064697361626C65642E0AD5
:10206600004C696768742053656E736F7220656EE5
:1020760061626C65642E0A004C696768742053655A
:102086006E736F722064697361626C65642E0A00F8
:102096004F6C642073657474696E6773207573651D
:0420A600640A0000C8
:00000001FF
