:020000020000FC
:020000003FC0FF
:02000C001EC212
:0200100033C2F9
:0200140031C2F7
:100068004443203D2000282529004C4544733A008C
:100078004F4E20004F46460008E204B90FE007B98A
:1000880008E00AB901E005B900E208B900E80BB9CF
:1000980007E00093680001E000936B0000E2009322
:1000A8006C0000E800936D0003E20093B00002E0EA
:1000B8000093B1000FE70093B4001AD0C4EFD1E069
:1000C80030E8789401D0FFCFE8E6F0E06AD099D024
:1000D800EEE6F0E066D04CE048B981D0C8D040E008
:1000E80048B97DD0C4D0E2E7F0E05BD07FD0089576
:1000F8004F932D98E8EEF3E0B6D043E048B96FD0BF
:10010800E2E3F0E0B0D043E048B969D0B0D0AFD076
:1001180043E048B964D0ABD0AAD042E048B95FD038
:10012800E2E3F0E0A0D042E048B959D0E1E1F0E0E4
:100138009AD048E048B953D0E1E1F0E094D040E0EB
:1001480048B94DD0E1E1F0E08ED048E048B947D059
:10015800E1E1F0E088D040E048B941D0E1E1F0E0E9
:1001680082D041E048B93BD0E1E1F0E07CD040E00A
:1001780048B935D0E1E1F0E076D046E048B92FD073
:10018800E1E1F0E070D040E048B929D0E1E1F0E0E9
:100198006AD04CE048B923D0E1E1F0E064D04F9157
:1001A80008952D9A0590002049F0029408B817D0B8
:1001B8005ED0029408B813D05AD0F3CF2D98089582
:1001C8002D9A0190002049F0029408B808D04FD029
:1001D800029408B804D04BD0F3CF2D9808952B9AE9
:1001E80000000000000000002B98089537FD01C0B2
:1001F80004C0E8E7F0E0D5DF0895ECE7F0E0D1DFF0
:100208000895EF92FF920F931F932F933F93EF93CD
:10021800FF930C2F1D2F2AE030E040E040930501AA
:1002280037D040E3E40EE09204014EE2409303012C
:100238002FD040E3E40EE09202012AD040E3E40E1E
:10024800E092010125D040E3E40EE0920001E0E0F5
:10025800F1E0B6DFFF91EF913F912F911F910F9140
:10026800FF90EF90089503D03197E9F70895EF9341
:10027800FF93F0E0F5BDF5B3F160F5BBF8E3F6BD2B
:10028800E2E0E5BDF5B3F0FFFDCFFF91EF910895F2
:10029800EE24FF18001F111FEE1CFF1CE21AF30AC0
:1002A80020F4E20EF31E889401C00894001F111F69
:1002B800EE1CFF1CE21AF30A20F4E20EF31E8894E7
:1002C80001C00894001F111FEE1CFF1CE21AF30A5C
:1002D80020F4E20EF31E889401C00894001F111F39
:1002E800EE1CFF1CE21AF30A20F4E20EF31E8894B7
:1002F80001C00894001F111FEE1CFF1CE21AF30A2C
:1003080020F4E20EF31E889401C00894001F111F08
:10031800EE1CFF1CE21AF30A20F4E20EF31E889486
:1003280001C00894001F111FEE1CFF1CE21AF30AFB
:1003380020F4E20EF31E889401C00894001F111FD8
:10034800EE1CFF1CE21AF30A20F4E20EF31E889456
:1003580001C00894001F111FEE1CFF1CE21AF30ACB
:1003680020F4E20EF31E889401C00894001F111FA8
:10037800EE1CFF1CE21AF30A20F4E20EF31E889426
:1003880001C00894001F111FEE1CFF1CE21AF30A9B
:1003980020F4E20EF31E889401C00894001F111F78
:1003A800EE1CFF1CE21AF30A20F4E20EF31E8894F6
:1003B80001C00894001F111FEE1CFF1CE21AF30A6B
:1003C80020F4E20EF31E889401C00894001F111F48
:1003D800EE1CFF1CE21AF30A20F4E20EF31E8894C6
:1003E80001C00894001F111FEE1CFF1CE21AF30A3B
:1003F80020F4E20EF31E889401C00894001F111F18
:10040800EE1CFF1CE21AF30A20F4E20EF31E889495
:1004180001C00894001F111F08956F937F93AF9335
:1004280079E0A0E063B160FFA39521DF7A95D1F769
:10043800A45012F43F7B01C03064AF917F916F915B
:100448000895EBDF36FF1895E8DF36FDFDCF3F7BDB
:1004580037FF07C040E04093B0003F7775D034DEE7
:10046800189543E24093B00030686ED02DDE1895A1
:100478009F9337FF08C0337F0AD096FF26D0D2FD5E
:1004880002C097FF22D060D01FDE9F9118956F930E
:100498007F93AF93BF9379E0A0E0B0E090EC66B1B2
:1004A80065FFA39569B167FFB395E1DE7A95B9F762
:1004B800A4500AF401C09F7BB4500AF401C09F778E
:1004C800BF91AF917F916F91089596FF346097FF28
:1004D8003860DDDF903CE9F732FD03D033FD19D0F9
:1004E80008950F3F09F40895043F41F00D3061F07D
:1004F8004DE0040F0093B40023D008950FEF00934C
:10050800B40032601DD0089507E10093B40018D0FC
:1005180008950D3009F40895073139F00F3F51F06F
:100528000D500093B4000ED008950DE00093B40070
:1005380009D0089504EF3D7F0093B40003D00895D7
:10054800E2960895E29708954F93EF93FF9340E062
:1005580048B945DEE1E1F0E086DE41E048B93FDE3A
:0E056800E1E1F0E080DEFF91EF914F91089508
:00000001FF
